:100000000EC0B2C2D7C326C0A1C390C223C022C0B3
:1000100021C020C01FC01EC01DC01CC01BC0112499
:100020001FBECFE5D2E0DEBFCDBF10E0A0E6B0E05E
:10003000E4EBF8E002C005900D92AA37B107D9F7BA
:1000400010E0AAE7B0E001C01D92A138B107E1F7C6
:10005000E4D32EC4D5CF90916900809162009817A7
:1000600019F010927E00089590916A0080916300CB
:100070009817B9F780916B00813099F780937E00D3
:100080000895382F863078F420917E0081E090E04A
:1000900002C0880F991F3A95E2F7279522272795E6
:1000A000282B20937F000895DF93CF93CDB7DEB741
:1000B0002E970FB6F894DEBF0FBECDBFAE014F5FD7
:1000C0005F4F9A01ECE6F0E09EE00190D9010D92BD
:1000D0009D019150D1F7480F511DFA018081862B67
:1000E000809380002E960FB6F894DEBF0FBECDBF72
:1000F000CF91DF910895C39882E0982F9A95F1F7F8
:10010000C39A8A95F1F70895CF92DF92EF92FF920A
:100110000F931F93CF93DF937C0100E010E092E0F8
:10012000C92EC0E0D0E00115110561F1F701818110
:1001300090E00C2E02C0959587950A94E2F780FD19
:100140002CC0C19882E0D82E8C2D8A95F1F7D3DF90
:100150002196C830D10539F70F5F1F4F02301105C6
:1001600001F7C0988D2D8A95F1F7C09A8D2D8A954B
:10017000F1F7DF91CF911F910F91FF90EF90DF90FA
:10018000CF900895F701808190E00C2E02C09595E4
:1001900087950A94E2F780FDD4CFC19AD3CFDF933D
:1001A000CF93CDB7DEB72E970FB6F894DEBF0FBE54
:1001B000CDBF582FC59A82E08A95F1F7663078F462
:1001C00020917E0081E090E002C0880F991F6A951F
:1001D000E2F7279522272795282B20937F00BE0141
:1001E0006F5F7F4F9B01ECE6F0E08EE00190D9015C
:1001F0000D929D018150D1F7650F711DFB0180812A
:10020000842B809380008FE790E07EDFC59880ED9F
:1002100097E00197F1F72E960FB6F894DEBF0FBE68
:10022000CDBFCF91DF910895FF920F931F93082FB9
:10023000162F110F212F2F5F8091640080FF19C0AE
:10024000809164000817A9F0FF24F3944130E1F095
:100250000A3030F580E0622F40E0A1DF802F6AE0B5
:100260001BD3892F612F4F2D9ADF1F910F91FF9084
:10027000089580916500813039F380916500FF24F5
:10028000823011F3413021F78AE0622F40E087DFAE
:100290008AE0612F4F2D83DF1F910F91FF9008950A
:1002A000802F6AE0F9D2D7CFEF92FF920F931F937E
:1002B000DF93CF9300D00F92CDB7DEB749836A8327
:1002C0008B837E010894E11CF11C00E010E080911A
:1002D0007C00882359F060916100862F90E08017A0
:1002E000910721F48091640080FF17C0F70180819D
:1002F000602F40E099DF0F5F1F4F0894E11CF11C55
:100300000330110521F70F900F900F90CF91DF91DF
:100310001F910F91FF90EF90089580E041E084DFFE
:10032000EACFBF92CF92DF92EF92FF920F931F938B
:10033000DF93CF9300D00F92CDB7DEB7B42E4983B1
:100340006A838B836E010894C11CD11C00E010E00D
:1003500021E0E22EF12C80917C00882301F501152B
:10036000110599F58BE061E040E019DFF1E0BF167F
:1003700039F1BB2021F48DE060E040E010DFF3E0D4
:10038000EF16F1045CF50F5F1F4F0894E11CF11CA0
:100390000894C11CD11C80917C00882301F36091DA
:1003A0006100862F90E08017910729F10115110552
:1003B00061F48BE061E040E0F2DE81E0B816C9F65E
:1003C0008CE060E040E0EBDEDECFF6018081602F64
:1003D00040E02ADFF3E0EF16F104ACF20F900F904B
:1003E0000F90CF91DF911F910F91FF90EF90DF90D1
:1003F000CF90BF9008958091640080FDD7CF80E0BA
:1004000041E012DFBCCF85E882BF83B7856083BF40
:1004100088B7826088BF89B7826089BF7894089561
:10042000809164008C3309F00895109264008091EB
:1004300063008F5F80936300809163008C33A1F72A
:1004400010926300809162008F5F809362008091C0
:100450006200883149F710926200809166008F5FD8
:1004600080936600809166008C3129F1809166004E
:100470008D3191F1809166008E31D1F180916600CD
:100480008F3191F6809167008F5F80936700809134
:1004900067008D3049F681E08093670080916800A5
:1004A0008F5F8093680080916800843609F0BCCF2C
:1004B000109268000895809167008230B9F68091AB
:1004C000680090E083709070892B81F280916700C2
:1004D0008F5F80936700089580916700823051F6A6
:1004E0008091680090E083709070892B19F6EECFB0
:1004F00080916700843051F380916700863031F33A
:1005000080916700893011F3809167008B3009F08A
:10051000B5CFDCCF8BB780648BBF85B7826085BFDA
:1005200008958BB780628BBFAC9A08951F920F928B
:100530000FB60F9211248F9385E882BF80917A00C5
:100540008F5F80937A0080917A00893239F410921B
:100550007A00809164008F5F809364008F910F9088
:100560000FBE0F901F9018951F920F920FB60F920B
:1005700011246F937F938F939F9385E88FBD80B7EE
:100580008B6080BF88B7846088BF89B7846089BF6B
:10059000789480917C00882359F4809165008F5F66
:1005A000809365008091650063E076D1909365004B
:1005B00080917C00813059F4809161008F5F80933D
:1005C00061008091610063E067D1909361009F9129
:1005D0008F917F916F910F900FBE0F901F90189584
:1005E000B29B07C080917C00813021F081E0809334
:1005F0007C00089510927C00089580916500882306
:1006000071F480916100823009F44FC080916100E3
:10061000813009F457C080916100882301F18091F5
:100620006500813041F180916500823009F00895C4
:1006300080916100823009F45FC080916100813057
:1006400009F44DC080916100882389F780916B0087
:10065000813009F478C081E080936B000895809127
:1006600064008F5F80936400809164008C33B9F6DE
:1006700010926400D4CF80916100823009F449C0A7
:1006800090916100913009F451C0809161008823FC
:1006900051F6809168008F5F8093680080916800B8
:1006A000843609F610926800BECF809162008F5F99
:1006B0008093620080916200883109F0A7CF109288
:1006C0006200A4CF809163008F5F8093630080916C
:1006D00063008C3309F09FCF109263009CCF809110
:1006E0006A008F5F80936A0080916A008C3309F002
:1006F000A9CF10926A00A6CF809169008F5F809386
:10070000690080916900883109F097CF10926900E3
:1007100094CF809166008F5F809366008091660021
:10072000803209F0ADCF10926600AACF80916700A9
:100730008F5F80936700809167008D3009F0A5CFAF
:1007400090936700A2CF10926B0008951F920F92B2
:100750000FB60F9211242F933F934F935F936F9394
:100760007F938F939F93AF93BF93EF93FF9385E80E
:100770008FBD80917B008F5F80937B0080917B0099
:100780008D3789F0FF91EF91BF91AF919F918F913C
:100790007F916F915F914F913F912F910F900FBE7D
:1007A0000F901F90189510927B001ADF89B78B7FEE
:1007B00089BFE8CF1F920F920FB60F9211241F939B
:1007C0002F933F934F935F936F937F938F939F9359
:1007D000AF93BF93EF93FF9380917D008823B1F493
:1007E00010917C001130A9F0FF91EF91BF91AF9172
:1007F0009F918F917F916F915F914F913F912F9139
:100800001F910F900FBE0F901F90189510927D00B2
:10081000EBCFF3DE10937D00E7CF8BE287BBF3DDF8
:100820008BB780648BBF85B7826085BF8BB78062D2
:100830008BBFAC9AF5DD80916500882371F08091C3
:1008400065008130A9F0809165008230E1F003DC21
:10085000E7DD80916500882391F7809162006091C7
:1008600063004091640020DD80916500813059F77C
:1008700080916600609167004091680015DD80916D
:100880006500823021F78091690060916A00409193
:100890006B0047DDE0DBDCCF991B79E004C0991FDA
:1008A000961708F0961B881F7A95C9F780950895CA
:0408B000F894FFCFEA
:1008B40001020A0E28021304140A0F01FC60DAF282
:0A08C40066B6BEE0FEF600EE9E7A76
:00000001FF
